{
  "_format": "hh-sol-artifact-1",
  "contractName": "CertificateNFT",
  "sourceName": "contracts/CertificateNFT.sol",
  "abi": [
    {
      "inputs": [],
      "stateMutability": "nonpayable",
      "type": "constructor"
    },
    {
      "inputs": [
        {
          "internalType": "address",
          "name": "sender",
          "type": "address"
        },
        {
          "internalType": "uint256",
          "name": "tokenId",
          "type": "uint256"
        },
        {
          "internalType": "address",
          "name": "owner",
          "type": "address"
        }
      ],
      "name": "ERC721IncorrectOwner",
      "type": "error"
    },
    {
      "inputs": [
        {
          "internalType": "address",
          "name": "operator",
          "type": "address"
        },
        {
          "internalType": "uint256",
          "name": "tokenId",
          "type": "uint256"
        }
      ],
      "name": "ERC721InsufficientApproval",
      "type": "error"
    },
    {
      "inputs": [
        {
          "internalType": "address",
          "name": "approver",
          "type": "address"
        }
      ],
      "name": "ERC721InvalidApprover",
      "type": "error"
    },
    {
      "inputs": [
        {
          "internalType": "address",
          "name": "operator",
          "type": "address"
        }
      ],
      "name": "ERC721InvalidOperator",
      "type": "error"
    },
    {
      "inputs": [
        {
          "internalType": "address",
          "name": "owner",
          "type": "address"
        }
      ],
      "name": "ERC721InvalidOwner",
      "type": "error"
    },
    {
      "inputs": [
        {
          "internalType": "address",
          "name": "receiver",
          "type": "address"
        }
      ],
      "name": "ERC721InvalidReceiver",
      "type": "error"
    },
    {
      "inputs": [
        {
          "internalType": "address",
          "name": "sender",
          "type": "address"
        }
      ],
      "name": "ERC721InvalidSender",
      "type": "error"
    },
    {
      "inputs": [
        {
          "internalType": "uint256",
          "name": "tokenId",
          "type": "uint256"
        }
      ],
      "name": "ERC721NonexistentToken",
      "type": "error"
    },
    {
      "inputs": [
        {
          "internalType": "address",
          "name": "owner",
          "type": "address"
        }
      ],
      "name": "OwnableInvalidOwner",
      "type": "error"
    },
    {
      "inputs": [
        {
          "internalType": "address",
          "name": "account",
          "type": "address"
        }
      ],
      "name": "OwnableUnauthorizedAccount",
      "type": "error"
    },
    {
      "anonymous": false,
      "inputs": [
        {
          "indexed": true,
          "internalType": "address",
          "name": "owner",
          "type": "address"
        },
        {
          "indexed": true,
          "internalType": "address",
          "name": "approved",
          "type": "address"
        },
        {
          "indexed": true,
          "internalType": "uint256",
          "name": "tokenId",
          "type": "uint256"
        }
      ],
      "name": "Approval",
      "type": "event"
    },
    {
      "anonymous": false,
      "inputs": [
        {
          "indexed": true,
          "internalType": "address",
          "name": "owner",
          "type": "address"
        },
        {
          "indexed": true,
          "internalType": "address",
          "name": "operator",
          "type": "address"
        },
        {
          "indexed": false,
          "internalType": "bool",
          "name": "approved",
          "type": "bool"
        }
      ],
      "name": "ApprovalForAll",
      "type": "event"
    },
    {
      "anonymous": false,
      "inputs": [
        {
          "indexed": false,
          "internalType": "uint256",
          "name": "tokenId",
          "type": "uint256"
        },
        {
          "indexed": false,
          "internalType": "string",
          "name": "token",
          "type": "string"
        },
        {
          "indexed": false,
          "internalType": "string",
          "name": "fileHash",
          "type": "string"
        }
      ],
      "name": "CertificateBurned",
      "type": "event"
    },
    {
      "anonymous": false,
      "inputs": [
        {
          "indexed": true,
          "internalType": "address",
          "name": "issuer",
          "type": "address"
        },
        {
          "indexed": false,
          "internalType": "uint256",
          "name": "tokenId",
          "type": "uint256"
        },
        {
          "indexed": false,
          "internalType": "string",
          "name": "token",
          "type": "string"
        },
        {
          "indexed": false,
          "internalType": "string",
          "name": "fileHash",
          "type": "string"
        },
        {
          "indexed": false,
          "internalType": "string",
          "name": "studentId",
          "type": "string"
        },
        {
          "indexed": false,
          "internalType": "string",
          "name": "courseName",
          "type": "string"
        },
        {
          "indexed": false,
          "internalType": "string",
          "name": "platform",
          "type": "string"
        },
        {
          "indexed": false,
          "internalType": "uint16",
          "name": "credits",
          "type": "uint16"
        },
        {
          "indexed": false,
          "internalType": "uint256",
          "name": "issueDate",
          "type": "uint256"
        }
      ],
      "name": "CertificateIssued",
      "type": "event"
    },
    {
      "anonymous": false,
      "inputs": [
        {
          "indexed": false,
          "internalType": "uint256",
          "name": "tokenId",
          "type": "uint256"
        },
        {
          "indexed": false,
          "internalType": "string",
          "name": "token",
          "type": "string"
        },
        {
          "indexed": false,
          "internalType": "string",
          "name": "reason",
          "type": "string"
        }
      ],
      "name": "CertificateRevoked",
      "type": "event"
    },
    {
      "anonymous": false,
      "inputs": [
        {
          "indexed": false,
          "internalType": "address",
          "name": "minter",
          "type": "address"
        }
      ],
      "name": "MinterAdded",
      "type": "event"
    },
    {
      "anonymous": false,
      "inputs": [
        {
          "indexed": false,
          "internalType": "address",
          "name": "minter",
          "type": "address"
        }
      ],
      "name": "MinterRemoved",
      "type": "event"
    },
    {
      "anonymous": false,
      "inputs": [
        {
          "indexed": true,
          "internalType": "address",
          "name": "previousOwner",
          "type": "address"
        },
        {
          "indexed": true,
          "internalType": "address",
          "name": "newOwner",
          "type": "address"
        }
      ],
      "name": "OwnershipTransferred",
      "type": "event"
    },
    {
      "anonymous": false,
      "inputs": [
        {
          "indexed": true,
          "internalType": "address",
          "name": "from",
          "type": "address"
        },
        {
          "indexed": true,
          "internalType": "address",
          "name": "to",
          "type": "address"
        },
        {
          "indexed": true,
          "internalType": "uint256",
          "name": "tokenId",
          "type": "uint256"
        }
      ],
      "name": "Transfer",
      "type": "event"
    },
    {
      "inputs": [
        {
          "internalType": "address",
          "name": "minter",
          "type": "address"
        }
      ],
      "name": "addMinter",
      "outputs": [],
      "stateMutability": "nonpayable",
      "type": "function"
    },
    {
      "inputs": [
        {
          "internalType": "address",
          "name": "to",
          "type": "address"
        },
        {
          "internalType": "uint256",
          "name": "tokenId",
          "type": "uint256"
        }
      ],
      "name": "approve",
      "outputs": [],
      "stateMutability": "nonpayable",
      "type": "function"
    },
    {
      "inputs": [
        {
          "internalType": "address",
          "name": "owner",
          "type": "address"
        }
      ],
      "name": "balanceOf",
      "outputs": [
        {
          "internalType": "uint256",
          "name": "",
          "type": "uint256"
        }
      ],
      "stateMutability": "view",
      "type": "function"
    },
    {
      "inputs": [
        {
          "internalType": "string",
          "name": "token",
          "type": "string"
        }
      ],
      "name": "burnCertificate",
      "outputs": [],
      "stateMutability": "nonpayable",
      "type": "function"
    },
    {
      "inputs": [
        {
          "internalType": "uint256",
          "name": "",
          "type": "uint256"
        }
      ],
      "name": "certificates",
      "outputs": [
        {
          "internalType": "uint256",
          "name": "serialNo",
          "type": "uint256"
        },
        {
          "internalType": "string",
          "name": "token",
          "type": "string"
        },
        {
          "internalType": "string",
          "name": "fileHash",
          "type": "string"
        },
        {
          "internalType": "string",
          "name": "studentId",
          "type": "string"
        },
        {
          "internalType": "string",
          "name": "courseName",
          "type": "string"
        },
        {
          "internalType": "string",
          "name": "platform",
          "type": "string"
        },
        {
          "internalType": "uint16",
          "name": "credits",
          "type": "uint16"
        },
        {
          "internalType": "uint256",
          "name": "issueDate",
          "type": "uint256"
        },
        {
          "internalType": "bool",
          "name": "revoked",
          "type": "bool"
        }
      ],
      "stateMutability": "view",
      "type": "function"
    },
    {
      "inputs": [
        {
          "internalType": "string",
          "name": "",
          "type": "string"
        }
      ],
      "name": "fileHashToTokenId",
      "outputs": [
        {
          "internalType": "uint256",
          "name": "",
          "type": "uint256"
        }
      ],
      "stateMutability": "view",
      "type": "function"
    },
    {
      "inputs": [
        {
          "internalType": "uint256",
          "name": "tokenId",
          "type": "uint256"
        }
      ],
      "name": "getApproved",
      "outputs": [
        {
          "internalType": "address",
          "name": "",
          "type": "address"
        }
      ],
      "stateMutability": "view",
      "type": "function"
    },
    {
      "inputs": [
        {
          "internalType": "string",
          "name": "fileHash",
          "type": "string"
        }
      ],
      "name": "getCertificateByFileHash",
      "outputs": [
        {
          "components": [
            {
              "internalType": "uint256",
              "name": "serialNo",
              "type": "uint256"
            },
            {
              "internalType": "string",
              "name": "token",
              "type": "string"
            },
            {
              "internalType": "string",
              "name": "fileHash",
              "type": "string"
            },
            {
              "internalType": "string",
              "name": "studentId",
              "type": "string"
            },
            {
              "internalType": "string",
              "name": "courseName",
              "type": "string"
            },
            {
              "internalType": "string",
              "name": "platform",
              "type": "string"
            },
            {
              "internalType": "uint16",
              "name": "credits",
              "type": "uint16"
            },
            {
              "internalType": "uint256",
              "name": "issueDate",
              "type": "uint256"
            },
            {
              "internalType": "bool",
              "name": "revoked",
              "type": "bool"
            }
          ],
          "internalType": "struct CertificateNFT.Certificate",
          "name": "",
          "type": "tuple"
        }
      ],
      "stateMutability": "view",
      "type": "function"
    },
    {
      "inputs": [
        {
          "internalType": "string",
          "name": "token",
          "type": "string"
        }
      ],
      "name": "getCertificateByToken",
      "outputs": [
        {
          "components": [
            {
              "internalType": "uint256",
              "name": "serialNo",
              "type": "uint256"
            },
            {
              "internalType": "string",
              "name": "token",
              "type": "string"
            },
            {
              "internalType": "string",
              "name": "fileHash",
              "type": "string"
            },
            {
              "internalType": "string",
              "name": "studentId",
              "type": "string"
            },
            {
              "internalType": "string",
              "name": "courseName",
              "type": "string"
            },
            {
              "internalType": "string",
              "name": "platform",
              "type": "string"
            },
            {
              "internalType": "uint16",
              "name": "credits",
              "type": "uint16"
            },
            {
              "internalType": "uint256",
              "name": "issueDate",
              "type": "uint256"
            },
            {
              "internalType": "bool",
              "name": "revoked",
              "type": "bool"
            }
          ],
          "internalType": "struct CertificateNFT.Certificate",
          "name": "",
          "type": "tuple"
        }
      ],
      "stateMutability": "view",
      "type": "function"
    },
    {
      "inputs": [
        {
          "internalType": "address",
          "name": "owner",
          "type": "address"
        },
        {
          "internalType": "address",
          "name": "operator",
          "type": "address"
        }
      ],
      "name": "isApprovedForAll",
      "outputs": [
        {
          "internalType": "bool",
          "name": "",
          "type": "bool"
        }
      ],
      "stateMutability": "view",
      "type": "function"
    },
    {
      "inputs": [
        {
          "internalType": "string",
          "name": "fileHash",
          "type": "string"
        }
      ],
      "name": "isValidFileHash",
      "outputs": [
        {
          "internalType": "bool",
          "name": "",
          "type": "bool"
        }
      ],
      "stateMutability": "view",
      "type": "function"
    },
    {
      "inputs": [
        {
          "internalType": "string",
          "name": "token",
          "type": "string"
        }
      ],
      "name": "isValidToken",
      "outputs": [
        {
          "internalType": "bool",
          "name": "",
          "type": "bool"
        }
      ],
      "stateMutability": "view",
      "type": "function"
    },
    {
      "inputs": [
        {
          "internalType": "string",
          "name": "token",
          "type": "string"
        },
        {
          "internalType": "string",
          "name": "fileHash",
          "type": "string"
        },
        {
          "internalType": "string",
          "name": "studentId",
          "type": "string"
        },
        {
          "internalType": "string",
          "name": "courseName",
          "type": "string"
        },
        {
          "internalType": "string",
          "name": "platform",
          "type": "string"
        },
        {
          "internalType": "uint16",
          "name": "credits",
          "type": "uint16"
        }
      ],
      "name": "issueAcademicCertificate",
      "outputs": [],
      "stateMutability": "nonpayable",
      "type": "function"
    },
    {
      "inputs": [
        {
          "internalType": "string",
          "name": "token",
          "type": "string"
        },
        {
          "internalType": "string",
          "name": "fileHash",
          "type": "string"
        }
      ],
      "name": "issueCertificateFileOnly",
      "outputs": [],
      "stateMutability": "nonpayable",
      "type": "function"
    },
    {
      "inputs": [
        {
          "internalType": "address",
          "name": "",
          "type": "address"
        }
      ],
      "name": "minters",
      "outputs": [
        {
          "internalType": "bool",
          "name": "",
          "type": "bool"
        }
      ],
      "stateMutability": "view",
      "type": "function"
    },
    {
      "inputs": [],
      "name": "name",
      "outputs": [
        {
          "internalType": "string",
          "name": "",
          "type": "string"
        }
      ],
      "stateMutability": "view",
      "type": "function"
    },
    {
      "inputs": [],
      "name": "nextSerialNo",
      "outputs": [
        {
          "internalType": "uint256",
          "name": "",
          "type": "uint256"
        }
      ],
      "stateMutability": "view",
      "type": "function"
    },
    {
      "inputs": [],
      "name": "nextTokenId",
      "outputs": [
        {
          "internalType": "uint256",
          "name": "",
          "type": "uint256"
        }
      ],
      "stateMutability": "view",
      "type": "function"
    },
    {
      "inputs": [],
      "name": "owner",
      "outputs": [
        {
          "internalType": "address",
          "name": "",
          "type": "address"
        }
      ],
      "stateMutability": "view",
      "type": "function"
    },
    {
      "inputs": [
        {
          "internalType": "uint256",
          "name": "tokenId",
          "type": "uint256"
        }
      ],
      "name": "ownerOf",
      "outputs": [
        {
          "internalType": "address",
          "name": "",
          "type": "address"
        }
      ],
      "stateMutability": "view",
      "type": "function"
    },
    {
      "inputs": [
        {
          "internalType": "address",
          "name": "minter",
          "type": "address"
        }
      ],
      "name": "removeMinter",
      "outputs": [],
      "stateMutability": "nonpayable",
      "type": "function"
    },
    {
      "inputs": [],
      "name": "renounceOwnership",
      "outputs": [],
      "stateMutability": "nonpayable",
      "type": "function"
    },
    {
      "inputs": [
        {
          "internalType": "string",
          "name": "token",
          "type": "string"
        },
        {
          "internalType": "string",
          "name": "reason",
          "type": "string"
        }
      ],
      "name": "revokeCertificate",
      "outputs": [],
      "stateMutability": "nonpayable",
      "type": "function"
    },
    {
      "inputs": [
        {
          "internalType": "address",
          "name": "from",
          "type": "address"
        },
        {
          "internalType": "address",
          "name": "to",
          "type": "address"
        },
        {
          "internalType": "uint256",
          "name": "tokenId",
          "type": "uint256"
        }
      ],
      "name": "safeTransferFrom",
      "outputs": [],
      "stateMutability": "nonpayable",
      "type": "function"
    },
    {
      "inputs": [
        {
          "internalType": "address",
          "name": "from",
          "type": "address"
        },
        {
          "internalType": "address",
          "name": "to",
          "type": "address"
        },
        {
          "internalType": "uint256",
          "name": "tokenId",
          "type": "uint256"
        },
        {
          "internalType": "bytes",
          "name": "data",
          "type": "bytes"
        }
      ],
      "name": "safeTransferFrom",
      "outputs": [],
      "stateMutability": "nonpayable",
      "type": "function"
    },
    {
      "inputs": [
        {
          "internalType": "address",
          "name": "operator",
          "type": "address"
        },
        {
          "internalType": "bool",
          "name": "approved",
          "type": "bool"
        }
      ],
      "name": "setApprovalForAll",
      "outputs": [],
      "stateMutability": "nonpayable",
      "type": "function"
    },
    {
      "inputs": [
        {
          "internalType": "bytes4",
          "name": "interfaceId",
          "type": "bytes4"
        }
      ],
      "name": "supportsInterface",
      "outputs": [
        {
          "internalType": "bool",
          "name": "",
          "type": "bool"
        }
      ],
      "stateMutability": "view",
      "type": "function"
    },
    {
      "inputs": [],
      "name": "symbol",
      "outputs": [
        {
          "internalType": "string",
          "name": "",
          "type": "string"
        }
      ],
      "stateMutability": "view",
      "type": "function"
    },
    {
      "inputs": [
        {
          "internalType": "string",
          "name": "",
          "type": "string"
        }
      ],
      "name": "tokenToTokenId",
      "outputs": [
        {
          "internalType": "uint256",
          "name": "",
          "type": "uint256"
        }
      ],
      "stateMutability": "view",
      "type": "function"
    },
    {
      "inputs": [
        {
          "internalType": "uint256",
          "name": "tokenId",
          "type": "uint256"
        }
      ],
      "name": "tokenURI",
      "outputs": [
        {
          "internalType": "string",
          "name": "",
          "type": "string"
        }
      ],
      "stateMutability": "view",
      "type": "function"
    },
    {
      "inputs": [
        {
          "internalType": "address",
          "name": "from",
          "type": "address"
        },
        {
          "internalType": "address",
          "name": "to",
          "type": "address"
        },
        {
          "internalType": "uint256",
          "name": "tokenId",
          "type": "uint256"
        }
      ],
      "name": "transferFrom",
      "outputs": [],
      "stateMutability": "nonpayable",
      "type": "function"
    },
    {
      "inputs": [
        {
          "internalType": "address",
          "name": "newOwner",
          "type": "address"
        }
      ],
      "name": "transferOwnership",
      "outputs": [],
      "stateMutability": "nonpayable",
      "type": "function"
    }
  ],
  "bytecode": "0x608060405260016007556127116008553480156200001c57600080fd5b503360405180604001604052806011815260200170504843455420436572746966696361746560781b81525060405180604001604052806006815260200165141210d1549560d21b8152508160009081620000789190620001c2565b506001620000878282620001c2565b5050506001600160a01b038116620000b957604051631e4fbdf760e01b81526000600482015260240160405180910390fd5b620000c481620000cb565b506200028e565b600680546001600160a01b038381166001600160a01b0319831681179093556040519116919082907f8be0079c531659141344cd1fd0a4f28419497f9722a3daafe3b4186f6b6457e090600090a35050565b634e487b7160e01b600052604160045260246000fd5b600181811c908216806200014857607f821691505b6020821081036200016957634e487b7160e01b600052602260045260246000fd5b50919050565b601f821115620001bd57600081815260208120601f850160051c81016020861015620001985750805b601f850160051c820191505b81811015620001b957828155600101620001a4565b5050505b505050565b81516001600160401b03811115620001de57620001de6200011d565b620001f681620001ef845462000133565b846200016f565b602080601f8311600181146200022e5760008415620002155750858301515b600019600386901b1c1916600185901b178555620001b9565b600085815260208120601f198616915b828110156200025f578886015182559484019460019091019084016200023e565b50858210156200027e5787850151600019600388901b60f8161c191681555b5050505050600190811b01905550565b612c46806200029e6000396000f3fe608060405234801561001057600080fd5b50600436106101f05760003560e01c806370a082311161010f578063b88d4fde116100a2578063e985e9c511610071578063e985e9c514610456578063ecea81f114610469578063f2fde38b14610494578063f46eccc4146104a757600080fd5b8063b88d4fde14610414578063b9cec70814610427578063bc4f5bad14610430578063c87b56dd1461044357600080fd5b80638da5cb5b116100de5780638da5cb5b146103d557806395d89b41146103e6578063983b2d56146103ee578063a22cb4651461040157600080fd5b806370a082311461039e578063715018a6146103b157806375794a3c146103b957806376a9ecb7146103c257600080fd5b806324f5a843116101875780635d21667c116101565780635d21667c1461033d578063606a2a2a146103505780636352211e14610363578063663b3e221461037657600080fd5b806324f5a843146102f15780633092afd514610304578063335d65ce1461031757806342842e0e1461032a57600080fd5b8063095ea7b3116101c3578063095ea7b31461027257806312b1316a1461028557806313d41b09146102be57806323b872dd146102de57600080fd5b806301ffc9a7146101f5578063037410d21461021d57806306fdde0314610232578063081812fc14610247575b600080fd5b6102086102033660046122e6565b6104ca565b60405190151581526020015b60405180910390f35b61023061022b3660046123af565b61051c565b005b61023a6107b8565b6040516102149190612463565b61025a610255366004612476565b61084a565b6040516001600160a01b039091168152602001610214565b6102306102803660046124ab565b610873565b6102b06102933660046124d5565b8051602081830181018051600b8252928201919093012091525481565b604051908152602001610214565b6102d16102cc3660046124d5565b610882565b604051610214919061250a565b6102306102ec3660046125e4565b610c27565b6102086102ff3660046124d5565b610cb2565b610230610312366004612620565b610cdc565b6102306103253660046124d5565b610d3c565b6102306103383660046125e4565b611225565b61020861034b3660046124d5565b611245565b6102d161035e3660046124d5565b611257565b61025a610371366004612476565b611271565b610389610384366004612476565b61127c565b6040516102149998979695949392919061263b565b6102b06103ac366004612620565b611575565b6102306115bd565b6102b060075481565b6102306103d03660046126e0565b6115d1565b6006546001600160a01b031661025a565b61023a61185f565b6102306103fc366004612620565b61186e565b61023061040f3660046127c1565b6118ca565b6102306104223660046127fd565b6118d5565b6102b060085481565b61023061043e3660046123af565b6118ed565b61023a610451366004612476565b6119ec565b610208610464366004612879565b611a61565b6102b06104773660046124d5565b8051602081830181018051600a8252928201919093012091525481565b6102306104a2366004612620565b611a8f565b6102086104b5366004612620565b600c6020526000908152604090205460ff1681565b60006001600160e01b031982166380ac58cd60e01b14806104fb57506001600160e01b03198216635b5e139f60e01b145b8061051657506301ffc9a760e01b6001600160e01b03198316145b92915050565b336000908152600c602052604090205460ff168061054457506006546001600160a01b031633145b6105695760405162461bcd60e51b8152600401610560906128ac565b60405180910390fd5b600a8160405161057991906128d4565b9081526020016040518091039020546000146105cd5760405162461bcd60e51b815260206004820152601360248201527246696c6520616c72656164792065786973747360681b6044820152606401610560565b60078054600091826105de836128f0565b909155506008805491925060009190826105f7836128f0565b909155506040805161012081018252828152602080820188815282840188905283518083018552600080825260608501919091528451808401865281815260808501528451808401865281815260a085015260c084018190524260e0850152610100840181905287815260099092529290208151815591519293509160018201906106829082612997565b50604082015160028201906106979082612997565b50606082015160038201906106ac9082612997565b50608082015160048201906106c19082612997565b5060a082015160058201906106d69082612997565b5060c082015160068201805461ffff191661ffff90921691909117905560e08201516007820155610100909101516008909101805460ff19169115159190911790556040518290600b9061072b9087906128d4565b90815260200160405180910390208190555081600a8460405161074e91906128d4565b908152604051908190036020019020556107683383611acd565b336001600160a01b03167f6a7679489e8c214724a129ab28d603096eb44a750f8299e4411160ade79d75218386866000426040516107aa959493929190612a57565b60405180910390a250505050565b6060600080546107c790612917565b80601f01602080910402602001604051908101604052809291908181526020018280546107f390612917565b80156108405780601f1061081557610100808354040283529160200191610840565b820191906000526020600020905b81548152906001019060200180831161082357829003601f168201915b5050505050905090565b600061085582611b32565b506000828152600460205260409020546001600160a01b0316610516565b61087e828233611b6b565b5050565b61088a612230565b6000600b8360405161089c91906128d4565b9081526020016040518091039020549050806000036108f55760405162461bcd60e51b815260206004820152601560248201527410d95c9d1a599a58d85d19481b9bdd08199bdd5b99605a1b6044820152606401610560565b60096000828152602001908152602001600020604051806101200160405290816000820154815260200160018201805461092e90612917565b80601f016020809104026020016040519081016040528092919081815260200182805461095a90612917565b80156109a75780601f1061097c576101008083540402835291602001916109a7565b820191906000526020600020905b81548152906001019060200180831161098a57829003601f168201915b505050505081526020016002820180546109c090612917565b80601f01602080910402602001604051908101604052809291908181526020018280546109ec90612917565b8015610a395780601f10610a0e57610100808354040283529160200191610a39565b820191906000526020600020905b815481529060010190602001808311610a1c57829003601f168201915b50505050508152602001600382018054610a5290612917565b80601f0160208091040260200160405190810160405280929190818152602001828054610a7e90612917565b8015610acb5780601f10610aa057610100808354040283529160200191610acb565b820191906000526020600020905b815481529060010190602001808311610aae57829003601f168201915b50505050508152602001600482018054610ae490612917565b80601f0160208091040260200160405190810160405280929190818152602001828054610b1090612917565b8015610b5d5780601f10610b3257610100808354040283529160200191610b5d565b820191906000526020600020905b815481529060010190602001808311610b4057829003601f168201915b50505050508152602001600582018054610b7690612917565b80601f0160208091040260200160405190810160405280929190818152602001828054610ba290612917565b8015610bef5780601f10610bc457610100808354040283529160200191610bef565b820191906000526020600020905b815481529060010190602001808311610bd257829003601f168201915b5050509183525050600682015461ffff1660208201526007820154604082015260089091015460ff1615156060909101529392505050565b6001600160a01b038216610c5157604051633250574960e11b815260006004820152602401610560565b6000610c5e838333611b78565b9050836001600160a01b0316816001600160a01b031614610cac576040516364283d7b60e01b81526001600160a01b0380861660048301526024820184905282166044820152606401610560565b50505050565b6000600b82604051610cc491906128d4565b90815260405190819003602001902054151592915050565b610ce4611c71565b6001600160a01b0381166000818152600c6020908152604091829020805460ff1916905590519182527fe94479a9f7e1952cc78f2d6baab678adc1b772d936c6583def489e524cb6669291015b60405180910390a150565b336000908152600c602052604090205460ff1680610d6457506006546001600160a01b031633145b610d805760405162461bcd60e51b8152600401610560906128ac565b6000600b82604051610d9291906128d4565b908152602001604051809103902054905080600003610de55760405162461bcd60e51b815260206004820152600f60248201526e151bdad95b881b9bdd08199bdd5b99608a1b6044820152606401610560565b6000600960008381526020019081526020016000206040518061012001604052908160008201548152602001600182018054610e2090612917565b80601f0160208091040260200160405190810160405280929190818152602001828054610e4c90612917565b8015610e995780601f10610e6e57610100808354040283529160200191610e99565b820191906000526020600020905b815481529060010190602001808311610e7c57829003601f168201915b50505050508152602001600282018054610eb290612917565b80601f0160208091040260200160405190810160405280929190818152602001828054610ede90612917565b8015610f2b5780601f10610f0057610100808354040283529160200191610f2b565b820191906000526020600020905b815481529060010190602001808311610f0e57829003601f168201915b50505050508152602001600382018054610f4490612917565b80601f0160208091040260200160405190810160405280929190818152602001828054610f7090612917565b8015610fbd5780601f10610f9257610100808354040283529160200191610fbd565b820191906000526020600020905b815481529060010190602001808311610fa057829003601f168201915b50505050508152602001600482018054610fd690612917565b80601f016020809104026020016040519081016040528092919081815260200182805461100290612917565b801561104f5780601f106110245761010080835404028352916020019161104f565b820191906000526020600020905b81548152906001019060200180831161103257829003601f168201915b5050505050815260200160058201805461106890612917565b80601f016020809104026020016040519081016040528092919081815260200182805461109490612917565b80156110e15780601f106110b6576101008083540402835291602001916110e1565b820191906000526020600020905b8154815290600101906020018083116110c457829003601f168201915b5050509183525050600682015461ffff166020820152600782015460408083019190915260089092015460ff161515606090910152818101519051919250600a9161112c91906128d4565b908152602001604051809103902060009055600b8360405161114e91906128d4565b908152604080516020928190038301902060009081905584815260099092528120818155906111806001830182612282565b61118e600283016000612282565b61119c600383016000612282565b6111aa600483016000612282565b6111b8600583016000612282565b5060068101805461ffff1916905560006007820155600801805460ff191690556111e182611c9e565b7f161fc1f3b1bd3bbf205d6412e233271db1132138b5e35a5c0e1f8d5c68e002b28284836040015160405161121893929190612ad6565b60405180910390a1505050565b611240838383604051806020016040528060008152506118d5565b505050565b6000600a82604051610cc491906128d4565b61125f612230565b6000600a8360405161089c91906128d4565b600061051682611b32565b6009602052600090815260409020805460018201805491929161129e90612917565b80601f01602080910402602001604051908101604052809291908181526020018280546112ca90612917565b80156113175780601f106112ec57610100808354040283529160200191611317565b820191906000526020600020905b8154815290600101906020018083116112fa57829003601f168201915b50505050509080600201805461132c90612917565b80601f016020809104026020016040519081016040528092919081815260200182805461135890612917565b80156113a55780601f1061137a576101008083540402835291602001916113a5565b820191906000526020600020905b81548152906001019060200180831161138857829003601f168201915b5050505050908060030180546113ba90612917565b80601f01602080910402602001604051908101604052809291908181526020018280546113e690612917565b80156114335780601f1061140857610100808354040283529160200191611433565b820191906000526020600020905b81548152906001019060200180831161141657829003601f168201915b50505050509080600401805461144890612917565b80601f016020809104026020016040519081016040528092919081815260200182805461147490612917565b80156114c15780601f10611496576101008083540402835291602001916114c1565b820191906000526020600020905b8154815290600101906020018083116114a457829003601f168201915b5050505050908060050180546114d690612917565b80601f016020809104026020016040519081016040528092919081815260200182805461150290612917565b801561154f5780601f106115245761010080835404028352916020019161154f565b820191906000526020600020905b81548152906001019060200180831161153257829003601f168201915b5050505060068301546007840154600890940154929361ffff9091169290915060ff1689565b60006001600160a01b0382166115a1576040516322718ad960e21b815260006004820152602401610560565b506001600160a01b031660009081526003602052604090205490565b6115c5611c71565b6115cf6000611cd9565b565b336000908152600c602052604090205460ff16806115f957506006546001600160a01b031633145b6116155760405162461bcd60e51b8152600401610560906128ac565b600a8560405161162591906128d4565b9081526020016040518091039020546000146116835760405162461bcd60e51b815260206004820152601a60248201527f436572746966696361746520616c7265616479206578697374730000000000006044820152606401610560565b6007805460009182611694836128f0565b909155506008805491925060009190826116ad836128f0565b90915550604080516101208101825282815260208082018c81528284018c9052606083018b9052608083018a905260a0830189905261ffff881660c08401524260e08401526000610100840181905287815260099092529290208151815591519293509160018201906117209082612997565b50604082015160028201906117359082612997565b506060820151600382019061174a9082612997565b506080820151600482019061175f9082612997565b5060a082015160058201906117749082612997565b5060c082015160068201805461ffff191661ffff90921691909117905560e08201516007820155610100909101516008909101805460ff19169115159190911790556040518290600b906117c9908b906128d4565b90815260200160405180910390208190555081600a886040516117ec91906128d4565b908152604051908190036020019020556118063383611acd565b336001600160a01b03167f6a7679489e8c214724a129ab28d603096eb44a750f8299e4411160ade79d7521838a8a8a8a8a8a4260405161184d989796959493929190612b0b565b60405180910390a25050505050505050565b6060600180546107c790612917565b611876611c71565b6001600160a01b0381166000818152600c6020908152604091829020805460ff1916600117905590519182527f6ae172837ea30b801fbfcdd4108aa1d5bf8ff775444fd70256b44e6bf3dfc3f69101610d31565b61087e338383611d2b565b6118e0848484610c27565b610cac3385858585611dca565b336000908152600c602052604090205460ff168061191557506006546001600160a01b031633145b6119315760405162461bcd60e51b8152600401610560906128ac565b6000600b8360405161194391906128d4565b90815260200160405180910390205490508060000361199c5760405162461bcd60e51b815260206004820152601560248201527410d95c9d1a599a58d85d19481b9bdd08199bdd5b99605a1b6044820152606401610560565b60008181526009602052604090819020600801805460ff19166001179055517f51e1b540646df5e04bafaa8eac34ebc9922396cde984b6264074779cd518db4b9061121890839086908690612ad6565b60606119f782611b32565b506000611a0f60408051602081019091526000815290565b90506000815111611a2f5760405180602001604052806000815250611a5a565b80611a3984611ef5565b604051602001611a4a929190612b91565b6040516020818303038152906040525b9392505050565b6001600160a01b03918216600090815260056020908152604080832093909416825291909152205460ff1690565b611a97611c71565b6001600160a01b038116611ac157604051631e4fbdf760e01b815260006004820152602401610560565b611aca81611cd9565b50565b6001600160a01b038216611af757604051633250574960e11b815260006004820152602401610560565b6000611b0583836000611b78565b90506001600160a01b03811615611240576040516339e3563760e11b815260006004820152602401610560565b6000818152600260205260408120546001600160a01b03168061051657604051637e27328960e01b815260048101849052602401610560565b6112408383836001611f88565b6000828152600260205260408120546001600160a01b0390811690831615611ba557611ba581848661208e565b6001600160a01b03811615611be357611bc2600085600080611f88565b6001600160a01b038116600090815260036020526040902080546000190190555b6001600160a01b03851615611c12576001600160a01b0385166000908152600360205260409020805460010190555b60008481526002602052604080822080546001600160a01b0319166001600160a01b0389811691821790925591518793918516917fddf252ad1be2c89b69c2b068fc378daa952ba7f163c4a11628f55a4df523b3ef91a4949350505050565b6006546001600160a01b031633146115cf5760405163118cdaa760e01b8152336004820152602401610560565b6000611cad6000836000611b78565b90506001600160a01b03811661087e57604051637e27328960e01b815260048101839052602401610560565b600680546001600160a01b038381166001600160a01b0319831681179093556040519116919082907f8be0079c531659141344cd1fd0a4f28419497f9722a3daafe3b4186f6b6457e090600090a35050565b6001600160a01b038216611d5d57604051630b61174360e31b81526001600160a01b0383166004820152602401610560565b6001600160a01b03838116600081815260056020908152604080832094871680845294825291829020805460ff191686151590811790915591519182527f17307eab39ab6107e8899845ad3d59bd9653f200f220920489ca2b5937696c31910160405180910390a3505050565b6001600160a01b0383163b15611eee57604051630a85bd0160e11b81526001600160a01b0384169063150b7a0290611e0c908890889087908790600401612bc0565b6020604051808303816000875af1925050508015611e47575060408051601f3d908101601f19168201909252611e4491810190612bf3565b60015b611eb0573d808015611e75576040519150601f19603f3d011682016040523d82523d6000602084013e611e7a565b606091505b508051600003611ea857604051633250574960e11b81526001600160a01b0385166004820152602401610560565b805181602001fd5b6001600160e01b03198116630a85bd0160e11b14611eec57604051633250574960e11b81526001600160a01b0385166004820152602401610560565b505b5050505050565b60606000611f02836120f2565b600101905060008167ffffffffffffffff811115611f2257611f22612303565b6040519080825280601f01601f191660200182016040528015611f4c576020820181803683370190505b5090508181016020015b600019016f181899199a1a9b1b9c1cb0b131b232b360811b600a86061a8153600a8504945084611f5657509392505050565b8080611f9c57506001600160a01b03821615155b1561205e576000611fac84611b32565b90506001600160a01b03831615801590611fd85750826001600160a01b0316816001600160a01b031614155b8015611feb5750611fe98184611a61565b155b156120145760405163a9fbf51f60e01b81526001600160a01b0384166004820152602401610560565b811561205c5783856001600160a01b0316826001600160a01b03167f8c5be1e5ebec7d5bd14f71427d1e84f3dd0314c0f7b2291e5b200ac8c7c3b92560405160405180910390a45b505b5050600090815260046020526040902080546001600160a01b0319166001600160a01b0392909216919091179055565b6120998383836121ca565b611240576001600160a01b0383166120c757604051637e27328960e01b815260048101829052602401610560565b60405163177e802f60e01b81526001600160a01b038316600482015260248101829052604401610560565b60008072184f03e93ff9f4daa797ed6e38ed64bf6a1f0160401b83106121315772184f03e93ff9f4daa797ed6e38ed64bf6a1f0160401b830492506040015b6d04ee2d6d415b85acef8100000000831061215d576d04ee2d6d415b85acef8100000000830492506020015b662386f26fc10000831061217b57662386f26fc10000830492506010015b6305f5e1008310612193576305f5e100830492506008015b61271083106121a757612710830492506004015b606483106121b9576064830492506002015b600a83106105165760010192915050565b60006001600160a01b038316158015906122285750826001600160a01b0316846001600160a01b0316148061220457506122048484611a61565b8061222857506000828152600460205260409020546001600160a01b038481169116145b949350505050565b604051806101200160405280600081526020016060815260200160608152602001606081526020016060815260200160608152602001600061ffff168152602001600081526020016000151581525090565b50805461228e90612917565b6000825580601f1061229e575050565b601f016020900490600052602060002090810190611aca91905b808211156122cc57600081556001016122b8565b5090565b6001600160e01b031981168114611aca57600080fd5b6000602082840312156122f857600080fd5b8135611a5a816122d0565b634e487b7160e01b600052604160045260246000fd5b600067ffffffffffffffff8084111561233457612334612303565b604051601f8501601f19908116603f0116810190828211818310171561235c5761235c612303565b8160405280935085815286868601111561237557600080fd5b858560208301376000602087830101525050509392505050565b600082601f8301126123a057600080fd5b611a5a83833560208501612319565b600080604083850312156123c257600080fd5b823567ffffffffffffffff808211156123da57600080fd5b6123e68683870161238f565b935060208501359150808211156123fc57600080fd5b506124098582860161238f565b9150509250929050565b60005b8381101561242e578181015183820152602001612416565b50506000910152565b6000815180845261244f816020860160208601612413565b601f01601f19169290920160200192915050565b602081526000611a5a6020830184612437565b60006020828403121561248857600080fd5b5035919050565b80356001600160a01b03811681146124a657600080fd5b919050565b600080604083850312156124be57600080fd5b6124c78361248f565b946020939093013593505050565b6000602082840312156124e757600080fd5b813567ffffffffffffffff8111156124fe57600080fd5b6122288482850161238f565b602081528151602082015260006020830151610120806040850152612533610140850183612437565b91506040850151601f19808685030160608701526125518483612437565b9350606087015191508086850301608087015261256e8483612437565b935060808701519150808685030160a087015261258b8483612437565b935060a08701519150808685030160c0870152506125a98382612437565b92505060c08501516125c160e086018261ffff169052565b5060e0850151610100858101919091529094015115159390920192909252919050565b6000806000606084860312156125f957600080fd5b6126028461248f565b92506126106020850161248f565b9150604084013590509250925092565b60006020828403121561263257600080fd5b611a5a8261248f565b60006101208b83528060208401526126558184018c612437565b90508281036040840152612669818b612437565b9050828103606084015261267d818a612437565b905082810360808401526126918189612437565b905082810360a08401526126a58188612437565b61ffff9690961660c0840152505060e08101929092521515610100909101529695505050505050565b803561ffff811681146124a657600080fd5b60008060008060008060c087890312156126f957600080fd5b863567ffffffffffffffff8082111561271157600080fd5b61271d8a838b0161238f565b9750602089013591508082111561273357600080fd5b61273f8a838b0161238f565b9650604089013591508082111561275557600080fd5b6127618a838b0161238f565b9550606089013591508082111561277757600080fd5b6127838a838b0161238f565b9450608089013591508082111561279957600080fd5b506127a689828a0161238f565b9250506127b560a088016126ce565b90509295509295509295565b600080604083850312156127d457600080fd5b6127dd8361248f565b9150602083013580151581146127f257600080fd5b809150509250929050565b6000806000806080858703121561281357600080fd5b61281c8561248f565b935061282a6020860161248f565b925060408501359150606085013567ffffffffffffffff81111561284d57600080fd5b8501601f8101871361285e57600080fd5b61286d87823560208401612319565b91505092959194509250565b6000806040838503121561288c57600080fd5b6128958361248f565b91506128a36020840161248f565b90509250929050565b6020808252600e908201526d139bdd08185d5d1a1bdc9a5e995960921b604082015260600190565b600082516128e6818460208701612413565b9190910192915050565b60006001820161291057634e487b7160e01b600052601160045260246000fd5b5060010190565b600181811c9082168061292b57607f821691505b60208210810361294b57634e487b7160e01b600052602260045260246000fd5b50919050565b601f82111561124057600081815260208120601f850160051c810160208610156129785750805b601f850160051c820191505b81811015611eec57828155600101612984565b815167ffffffffffffffff8111156129b1576129b1612303565b6129c5816129bf8454612917565b84612951565b602080601f8311600181146129fa57600084156129e25750858301515b600019600386901b1c1916600185901b178555611eec565b600085815260208120601f198616915b82811015612a2957888601518255948401946001909101908401612a0a565b5085821015612a475787850151600019600388901b60f8161c191681555b5050505050600190811b01905550565b6000610100878352806020840152612a7181840188612437565b90508281036040840152612a858187612437565b905082810380606085015260008252602081016080850152600060208301526040810160a085015250600060408201526060810191505061ffff841660c08301528260e08301529695505050505050565b838152606060208201526000612aef6060830185612437565b8281036040840152612b018185612437565b9695505050505050565b60006101008a8352806020840152612b258184018b612437565b90508281036040840152612b39818a612437565b90508281036060840152612b4d8189612437565b90508281036080840152612b618188612437565b905082810360a0840152612b758187612437565b61ffff9590951660c0840152505060e001529695505050505050565b60008351612ba3818460208801612413565b835190830190612bb7818360208801612413565b01949350505050565b6001600160a01b0385811682528416602082015260408101839052608060608201819052600090612b0190830184612437565b600060208284031215612c0557600080fd5b8151611a5a816122d056fea2646970667358221220d82460616d968251b1256dc7365f9847e7659939487937a2bb1f0e9480b59c7764736f6c63430008140033",
  "linkReferences": {},
  "deployedLinkReferences": {}
}